:030000000200EC0F
:0C00EC00787FE4F6D8FD75812102007DCC
:10007D00750E00750F04751000751105751200755C
:10008D0013067514007515077516007517087B0393
:0F009D007A007D027C007F017E0012000380D17B
:1000DA00C0F9A4B0999282F880908CBFC6A186FF1D
:0200EA00BF7FD6
:10000300E4F518F519850F1A8B1B8D1C8F1D8517A9
:100013001E85151F851320851121F518F519741AEE
:100023002519F8E69000DA93F4FF1200ACAF1974C7
:10003300F7A807088002C313D8FCFF1200ACC2B3B1
:10004300D2B3741E2519F8E69000DA93F4FF120078
:10005300C3AF1974F7A807088002C313D8FCFF12B3
:1000630000C3C2A3D2A30519E51970020518C394EE
:0A00730004E5186480948040A52283
:1000AC007E08EF30E704D2B48002C2B4EF25E0FF43
:0700BC00C2B2D2B2DEEC2259
:1000C3007E08EF30E704D2A48002C2A4EF25E0FF4C
:0700D300C2A2D2A2DEEC2262
:00000001FF
