:03000000020116E4
:0C011600787FE4F6D8FD7581210200A777
:1000A700750E00750F047510007511057512007532
:1000B70013067514007515077516007517087B0369
:0F00C7007A007D027C007F017E0012000380D151
:10010400C0F9A4B0999282F880908CBFC6A186FFF2
:02011400BF7FAB
:10000300E4F518F519850F1A8B1B8D1C8F1D8517A9
:100013001E85151F851320851121F518F519E5197E
:1000230064034518701F741A2519F8E690010493A8
:10003300547FF4FF1200D6741E2519F8E6900104CC
:1000430093547F8019741A2519F8E690010493F4E8
:10005300FF1200D6741E2519F8E690010493F4FFED
:100063001200EDAF1974F7A807088002C313D8FC78
:10007300FF1200D6AF1974F7A807088002C313D87C
:10008300FCFF1200EDC2B3D2B3C2A3D2A30519E59C
:100093001970020518C39404E51864809480500312
:0400A3000200212214
:1000D6007E08EF30E704D2B48002C2B4EF25E0FF19
:0700E600C2B2D2B2DEEC222F
:1000ED007E08EF30E704D2A48002C2A4EF25E0FF22
:0700FD00C2A2D2A2DEEC2238
:00000001FF
